S00F000054657374696E672E7372656337
S113000033C0000044C0000042C0000040C00000F3
S11300103EC000003CC000003AC0000038C00000F0
S113002036C0000034C0000032C0000030C0000000
S11300302EC000002CC000002AC0000028C0000010
S113004026C0000024C0000022C0000020C0000020
S11300501EC000001CC000001AC0000018C0000030
S113006016C0000014C0000011241FBECFEFD8E05A
S1130070DEBFCDBF11E0A0E0B1E0EAE7F9E002C0E5
S113008005900D92AA31B107D9F750D174C4B8CFF5
S11300908F929F92AF92BF92DF92EF921F93CF9372
S11300A0DF935C0156988EE703C0815009F4F8C0D1
S11300B09AE09A95F1F700C04E9BF7CF5E98569A56
S11300C0AFE3BFE11197F1F700C0000056985E9AC4
S11300D08AE103C0815009F4E6C0BAE0BA95F1F7A9
S11300E000C04E99F7CF83E303C0815009F4DEC00A
S11300F09AE09A95F1F700C04E9BF7CF83E303C0D3
S1130100815009F4D6C0AAE0AA95F1F700C04E992F
S1130110F7CF10E0D12CE0E0F0E0C0E0D0E0A0E0C8
S1130120E12C67E270E041E050E02FE130E08FE045
S113013090E004C0A43210F0BFC0AE2DAF5FBAE0AF
S1130140BA95F1F700C04E9BF5CFAE2D03C0A33393
S113015009F4B5C0AF5FBAE0BA95F1F700C04E99A3
S1130160F6CFA53150F1103158F4DC01A11BB109CF
S11301704A0102C0880C991CAA95E2F7C829D9291A
S1130180A12FA051A03158F4D901A11BB1094A01F2
S113019002C0880C991CAA95E2F7E829F929A12F35
S11301A0A052A83050F4DB01A11BB1094A0102C0DE
S11301B0880C991CAA95E2F7D8281F5F183208F416
S11301C0BCCF2D2D30E04D2F55274C0F511D8F2FB7
S11301D09927840F951F8E0F911D9927281739078A
S11301E009F070C09E01ADECBCECF6D096958795F5
S11301F09695879596958795D50112968C93129727
S11302009C01220F331F880F991F880F991F880F95
S1130210991F820F931FC81BD90B1396CC93FF23EE
S11302200CF5FF779F01ADECBCECD6D09695879585
S11302309695879596958795282F2195D5012C938A
S11302409C01220F331F880F991F880F991F880F55
S1130250991F820F931FE81BF90B1196EC9320E072
S113026030E032C09F01ADECBCECB6D096958795DA
S11302709695879596958795D5018C939C01220F29
S1130280331F880F991F880F991F880F991F820F9A
S1130290931FE81BF90B1196EC9320E030E014C097
S11302A021E030E011C022E030E00EC023E030E075
S11302B00BC023E030E008C024E030E005C025E0B6
S11302C030E002C026E030E0822F932FDF91CF91FF
S11302D01F91EF90DF90BF90AF909F908F90089503
S11302E0E0ECF0E0908195FFFDCF8093C600089587
S11302F0CF93DF93EC018881882329F02196F0DFE6
S113030089918111FCCFDF91CF910895E1ECF0E068
S1130310808188618083E2ECF0E080818660808364
S11303201092C50087E68093C4000895CF93DF93AD
S1130330CDB7DEB769970FB6F894DEBF0FBECDBF59
S1130340E5DFF8940F2EF0E0CF2EF1E0DF2EF02D54
S11303508E010A5F1F4F0F2EF0E1EF2EF1E0FF2E0A
S1130360F02DCE01019694DE2FEF37E843E12150C2
S113037030404040E1F700C000000097E9F48C8170
S11303801F928F938B811F928F938A811F928F93D9
S11303902981822F992787FD90959F932F93DF9230
S11303A0CF921F930F9324D0C801A2DF0FB6F89405
S11303B0DEBF0FBECDBFD5CF9F938F93FF92EF9239
S11303C01F930F9315D0C80193DF0F900F900F90D8
S11303D00F900F900F90C5CFA29FB001B39FC001A3
S11303E0A39F01D0B29F700D811D1124911D08950A
S11303F0AEE0B0E0EDEFF1E095C20D891E8986E034
S11304008C831A8309838FEF9FE79E838D83CE01AC
S11304104996AC016F89788DCE01019608D0EF81A1
S1130420F885E00FF11F10822E96E4E097C2ACE04D
S1130430B0E0ECE1F2E068C27C016B018A01FC01EE
S113044017821682838181FFB9C188248394912CF9
S11304508C0E9D1EF7019381F60193FD859193FF08
S113046081916F01882309F4A5C1853239F493FD84
S1130470859193FF81916F01853221F4B70190E05A
S1130480B9D1E8CF512C312C20E02032A8F48B32A2
S113049061F028F4803251F0833271F40BC08D3254
S11304A039F0803349F4216028C02260246025C0DB
S11304B0286023C0206121C027FD27C0382F305376
S11304C03A3078F426FF06C0FAE05F9E300D11241E
S11304D0532E13C08AE0389E300D1124332E20622F
S11304E00CC08E3221F426FD65C1206406C08C3612
S11304F011F4206802C0883641F4F60193FD859119
S113050093FF81916F018111C0CF982F955493303F
S113051018F09052933028F40C5F1F4FFFE3F983D7
S11305200DC0833631F0833771F0833509F05AC03A
S113053022C0F801808189830E5F1F4F44244394B5
S1130540512C540114C03801F2E06F0E711CF801F3
S1130550A080B18026FF03C0652D70E002C06FEF5C
S11305607FEFC5012C873BD12C0183012C856FE7DC
S1130570262E222217C03801F2E06F0E711CF801FA
S1130580A080B18026FF03C0652D70E002C06FEF2C
S11305907FEFC5012C8718D12C012C8550E8252E1E
S11305A0222A830123FC1AC005C0B70180E290E02F
S11305B021D13A94832D90E048165906B0F30EC029
S11305C0F50127FC859127FE81915F01B70190E039
S11305D011D131103A94F1E04F1A510841145104E9
S11305E079F7E5C0843611F0893639F5F80127FF2B
S11305F007C060817181828193810C5F1F4F08C0A5
S113060060817181882777FD8095982F0E5F1F4F39
S11306104FE6B42EB22297FF09C09095809570954D
S113062061957F4F8F4F9F4FF0E8BF2A2AE030E05B
S1130630A4010CD1A82EA81842C0853731F43FEE8E
S1130640B32EB2222AE030E024C099EFB92EB222B0
S11306508F36B9F020F4883509F0ACC00DC080376E
S113066021F0883709F0A6C002C020E1B22AB4FE06
S11306700BC084E0B82A08C024FF09C0E6E0BE2A03
S113068006C028E030E005C020E130E002C020E1EF
S113069032E0F801B7FE07C06081718182819381E5
S11306A00C5F1F4F06C06081718180E090E00E5F97
S11306B01F4FA401CBD0A82EA818FFE7BF22B6FE77
S11306C00BC02B2D2E7FA51450F4B4FE0AC0B2FC2F
S11306D008C02B2D2E7E05C07A2C2B2D03C07A2C1E
S11306E001C0752C24FF0DC0FE01EA0DF11D8081AF
S11306F0803311F4297E09C022FF06C073947394D9
S113070004C0822F867809F0739423FD13C020FF60
S11307100EC05A2C731458F4530C5718732C07C07A
S1130720B70180E290E02C8765D073942C85731414
S1130730B8F304C0731410F4371801C0312C24FF2B
S113074011C0B70180E390E02C8754D02C8522FFA0
S11307501CC021FF03C088E590E002C088E790E058
S1130760B7010CC0822F867881F021FD02C080E29F
S113077001C08BE227FD8DE2B70190E03BD005C0BC
S1130780B70180E390E036D05A94A514C8F3AA9434
S1130790F401EA0DF11DB701808190E02BD0A11086
S11307A0F6CF05C0B70180E290E024D03A9431102E
S11307B0F9CF50CEF7012681378102C02FEF3FEFEA
S11307C0C9012C96E2E1BCC0FC0105906150704067
S11307D00110D8F7809590958E0F9F1F0895FC0106
S11307E06150704001900110D8F7809590958E0F5C
S11307F09F1F08950F931F93CF93DF938C01EB01F9
S11308008B8181FD03C00FEF1FEF1AC082FF0DC063
S11308102E813F818C819D812817390764F4E881FA
S1130820F9810193F983E88306C0E885F985802F6F
S11308300995892B41F78E819F8101969F838E8331
S1130840C801DF91CF911F910F910895FA01AA2752
S1130850283051F1203181F1E8946F936E7F6E5FFF
S11308607F4F8F4F9F4FAF4FB1E03ED0B4E03CD0AD
S1130870670F781F891F9A1FA11D680F791F8A1F90
S1130880911DA11D6A0F711D811D911DA11D20D0F7
S113089009F468943F912AE0269F11243019305DB1
S11308A03193DEF6CF010895462F4770405D4193A2
S11308B0B3E00FD0C9F7F6CF462F4F70405D4A33EF
S11308C018F0495D31FD4052419302D0A9F7EACFB7
S11308D0B4E0A6959795879577956795BA95C9F7E6
S11308E000976105710508959B01AC010A2E0694D9
S11308F05795479537952795BA95C9F7620F731F92
S1130900841F951FA01D08952F923F924F925F92CE
S11309106F927F928F929F92AF92BF92CF92DF920B
S1130920EF92FF920F931F93CF93DF93CDB7DEB770
S1130930CA1BDB0B0FB6F894DEBF0FBECDBF099404
S11309402A88398848885F846E847D848C849B845B
S1130950AA84B984C884DF80EE80FD800C811B8169
S1130960AA81B981CE0FD11D0FB6F894DEBF0FBE98
S10D0970CDBFED010895F894FFCF08
S113097A4F4B2C25692E25752C25752E25750A00B5
S10D098A4552524F522C25690A0011
S9030000FC
